:02000000412895
:0E000600073083120313FD00FD0B07280800CE
:0E0014008312031333088A00320882000800AA
:100022000A208A110A128000840AB20A0319B30A4A
:08003200F003031D1128080072
:10003A00831203139F01C0309F0483161F179F1753
:10004A0083123408F000F00D7010F00D7010F00DEE
:10005A00701070089F041F1403201F151F1D3728D6
:10006A00000033281F101E08F100F00183161E0835
:08007A00F0040030F10408005D
:1000820083120313A001A101A201A301A401A501EE
:100092003230A600A701A801A9018930AA00AB014C
:1000A200AC01AD01AE01AF01B001B101FF30831669
:1000B2008500FF30890082309F00013083129F004B
:1000C2008316860187018801831286120710881021
:1000D20086124130FC00EE30FD00FD0B6E28FC0B59
:1000E2006E28000086168230FC00DD30FD00FD0B1C
:1000F2007828FC0B782800000000B4011D2070084D
:100102008312AA007108AB0000307102031D8B2814
:100112008C30700203188F28071098282B08003C97
:10012200031D95282A08883C031898280714823052
:10013200FC00DD30FD00FD0B9C28FC0B9C28000020
:100142000000B4011D2070088312AA007108AB00E0
:100152000D30FC00FB30FD00FD0BAD28FC0BAD2883
:10016200000000000130B4001D2070088312A600B8
:100172007108A7000D30FC00FB30FD00FD0BBF280D
:10018200FC0BBF28000000000230B4001D207008E4
:100192008312A2007108A3000D30FC00FB30FD00A9
:1001A200FD0BD128FC0BD1280000000000300918FB
:1001B2000130A000A10100302B02031DE2288C3087
:1001C2002A020318E52807102B08003C031DEB2820
:1001D2002A08883C0318EE28071486128230FC0095
:1001E200DD30FD00FD0BF328FC0BF32800000000BE
:1001F20000302106031DFF2801302006031D262999
:100202008814A401A50100302502031D0A29C83063
:1002120024020318262988140D30FC00FB30FD004F
:10022200FD0B1129FC0B11290000000088100D3074
:10023200FC00FB30FD00FD0B1C29FC0B1C290000FF
:100242000000A40A0319A50A042900302106031D8F
:100252002C2900302006031D2F2988100030270288
:10026200031D352914302602031C3B290130AE0040
:100272000030AF0000302702031D4129143026024E
:10028200031855292E082F04031955294130FC0063
:10029200EE30FD00FD0B4B29FC0B4B290000B00A90
:1002A2000319B10AAE01AF01851D6D2900302B0281
:1002B200031D5D298C302A0203186D294130FC0090
:1002C200EE30FD00FD0B6329FC0B63290000B00A30
:1002D2000319B10AAE01AF0100303106031D7329C3
:1002E20001303006031DF32900302902031D7B294A
:1002F200023028020318B7290130A2000030A300FF
:100302008814A401A50100302502031D8A29C830E2
:1003120024020318A62988140D30FC00FB30FD00CE
:10032200FD0B9129FC0B91290000000088100D3073
:10033200FC00FB30FD00FD0B9C29FC0B9C290000FE
:100342000000A40A0319A50A8429A80A0319A90A04
:100352000230FB000430FC00BA30FD00FD0BAF2977
:10036200FC0BAF29FB0BAF2900007D29B4011D2036
:1003720070088312AA007108AB000D30FC00FB303C
:10038200FD00FD0BC229FC0BC22900000000003059
:100392002B02031DCE298C302A020318D129071003
:1003A2002B08003C031DD7292A08883C0318DA29A8
:1003B200071486128230FC00DD30FD00FD0BDF29C0
:1003C200FC0BDF2900000000A801A901AC01AD016E
:1003D200A601A701B001B101AA01AB01A201A301CB
:0803E200AE01AF01A228F429CD
:02400E004A2F37
:00000001FF
